:020000040800F2
:1000000000C000204D0D0008010300080303000894
:1000100005030008070300080903000800000000AA
:100020000000000000000000000000000B030008BA
:100030000D030008000000000F0300081103000872
:10004000950D0008950D0008950D0008950D000808
:10005000950D0008950D0008950D0008950D0008F8
:10006000950D0008950D0008950D0008950D0008E8
:10007000950D0008950D0008950D0008950D0008D8
:10008000950D0008950D0008950D0008950D0008C8
:10009000950D0008950D0008950D0008950D0008B8
:1000A000950D0008950D0008950D0008950D0008A8
:1000B000950D0008950D0008950D0008950D000898
:1000C000950D0008950D0008950D0008950D000888
:1000D000950D0008950D0008950D0008950D000878
:1000E000950D0008950D0008950D0008950D000868
:1000F000950D0008950D0008950D0008950D000858
:10010000950D0008950D0008950D0008950D000847
:10011000950D0008950D0008950D0008950D000837
:10012000950D0008950D0008950D0008950D000827
:1001300000000000000000000000000000000000BF
:1001400000000000000000000000000000000000AF
:10015000000000000000000000000000000000009F
:10016000000000000000000000000000000000008F
:10017000000000000000000000000000000000007F
:10018000000000000000000000000000000000006F
:10019000000000000000000000000000000000005F
:1001A000000000000000000000000000000000004F
:1001B000000000000000000000000000000000003F
:1001C000000000000000000000000000000000002F
:1001D000000000000000000000000000000000001F
:0401E0005FF8E0F1F3
:1001E40010B5054C237833B9044B13B10448AFF36D
:1001F40000800123237010BD0C00002000000000CB
:10020400E00D000808B5034B1BB103490348AFF3E5
:10021400008008BD0000000010000020E00D000870
:1002240030B591B00024089409940B940C94019473
:100234000294039404940594012206924FF48033AB
:1002440007930A9202250D950E934FF480130F9392
:1002540006A800F01BF90F230193029503944FF4B1
:10026400806304930594294601A800F055FB11B05E
:1002740030BD000008B500F0BBF8FFF7D1FF00F077
:100284000BF8C82000F0D8F80421024800F0F8FC6C
:10029400F7E700BF0010014030B587B00024029496
:1002A400039404940594134B9A6942F020029A61D2
:1002B4009A6902F020020092009A9A6942F01002B0
:1002C4009A619B6903F010030193019B0A4D224636
:1002D4000421284600F0CEFC042302930123039357
:1002E40004940223059302A9284600F0C9FB07B031
:1002F40030BD00BF00100240001001407047FEE70F
:10030400FEE7FEE7FEE770477047704708B500F068
:1003140081F808BD82B00E4B9A6942F001029A61DD
:100324009A6902F001020092009ADA6942F080525E
:10033400DA61DB6903F080530193019B054A53683A
:1003440023F0E06343F08063536002B0704700BF62
:1003540000100240000001400F4B1A6842F00102F5
:100364001A6059680D4A0A405A601A6822F0847269
:1003740022F480321A601A6822F480221A605A68C1
:1003840022F4FE025A604FF41F029A60044B4FF0AD
:1003940000629A60704700BF001002400000FFF83E
:1003A40000ED00E010B504460E4B18784FF47A7354
:1003B400B3FBF0F30C4A1068B0FBF3F000F0AEFCB2
:1003C40068B90F2C01D901200AE0002221464FF020
:1003D400FF3000F06FFC054B1C60002000E00120A2
:1003E40010BD00BF04000020000000200800002011
:1003F40008B5074A136843F010031360032000F0A4
:1004040047FC0020FFF7CEFFFFF784FF002008BD64
:1004140000200240034A1168034B1B780B4413600D
:10042400704700BF2800002004000020014B18681A
:10043400704700BF2800002038B50446FFF7F6FFD8
:100444000546B4F1FF3F02D0044B1B781C44FFF770
:10045400EDFF401BA042FAD338BD00BF04000020CA
:1004640082B0084B1B68084AA2FB03235B0A00FB0B
:1004740003F0019000BF019B5A1E0192002BF9D199
:1004840002B0704700000020D34D6210002800F035
:10049400F58170B582B00446036813F0010F2CD0C7
:1004A400AB4B5B6803F00C03042B1DD0A84B5B68BB
:1004B40003F00C03082B12D06368B3F5803F41D0DE
:1004C400002B55D103F1804303F504331A6822F459
:1004D40080321A601A6822F480221A6037E09C4B3A
:1004E4005B6813F4803FE7D0994B1B6813F4003F1B
:1004F40003D06368002B00F0C381236813F0020F5C
:1005040076D0934B5B6813F00C0F5FD0904B5B6815
:1005140003F00C03082B54D02369002B00F08A80CD
:100524008C4B01221A60FFF781FF0546884B1B683C
:1005340013F0020F75D1FFF779FF401B0228F5D99C
:100544000320A0E1824A136843F480331360636894
:1005540043B3FFF76BFF05467D4B1B6813F4003F65
:10056400CBD1FFF763FF401B6428F5D903208AE150
:10057400B3F5A02F09D0764B1A6822F480321A60A2
:100584001A6822F480221A60E1E703F18043A3F59C
:100594003C331A6842F480221A601A6842F48032AA
:1005A4001A60D4E7FFF742FF0546694B1B6813F452
:1005B400003FA2D0FFF73AFF401B6428F5D903207F
:1005C40061E1634B5B6813F4803FA5D1604B1B680A
:1005D40013F0020F04D02369012B01D0012052E152
:1005E4005B4A136823F0F803616943EAC1031360AB
:1005F400236813F0080F32D0A369002B5BD0564B4D
:1006040001221A60FFF712FF0546514B5B6A13F093
:10061400020F21D1FFF70AFF401B0228F5D903205E
:1006240031E14B4A136823F0F803616943EAC103DB
:100634001360DDE7474B00221A60FFF7F7FE05461B
:10064400434B1B6813F0020FD2D0FFF7EFFE401BA1
:100654000228F5D9032016E10120FFF701FF2368E2
:1006640013F0040F00F09880394BDB6913F0805FBE
:1006740033D1374BDA6942F08052DA61DB6903F037
:1006840080530193019B0125344B1B6813F4807F35
:1006940025D0E368012B36D0002B4CD103F18043E5
:1006A40003F504331A6A22F001021A621A6A22F06C
:1006B40004021A622CE0284B00221A60FFF7B6FEEF
:1006C4000546234B5B6A13F0020FC8D0FFF7AEFE5A
:1006D400401B0228F5D90320D5E00025D4E71F4AA2
:1006E400136843F480731360FFF7A0FE06461B4BA8
:1006F4001B6813F4807FCCD1FFF798FE801B64281D
:10070400F5D90320BFE0124A136A43F001031362D0
:10071400E3687BB3FFF78AFE06460D4B1B6A13F0B2
:10072400020F38D1FFF782FE801B41F288339842D2
:10073400F3D90320A7E0052B12D0054B1A6A22F047
:1007440001021A621A6A22F004021A62E0E700BF88
:100754000010024000004242800442420070004007
:100764004C4B1A6A42F004021A621A6A42F00102FD
:100774001A62CDE7FFF75AFE0646464B1B6A13F092
:10078400020F08D0FFF752FE801B41F288339842D3
:10079400F3D9032077E0E5B9E369002B72D03D4A31
:1007A400526802F00C02082A56D0022B17D03A4B9A
:1007B40000221A60FFF73AFE0446364B1B6813F01A
:1007C400007F47D0FFF732FE001B0228F5D9032033
:1007D40059E0304AD36923F08053D361DCE72E4BD0
:1007E40000221A60FFF722FE05462A4B1B6813F00D
:1007F400007F06D0FFF71AFE401B0228F5D903201C
:1008040041E0236AB3F5803F1AD022494B6823F4B0
:100814007413226A606A024313434B601E4B012225
:100824001A60FFF703FE04461A4B1B6813F0007F9F
:100834000ED1FFF7FBFD001B0228F5D9032022E0AF
:10084400144A536823F40033A1680B435360DCE774
:10085400002018E0002016E0012B16D00D4B5B6839
:1008640003F48031226A914201D001200BE003F4A9
:100874007013626A93420AD0012004E00120704799
:10088400012000E0002002B070BD0120FBE7002041
:10089400F9E700BF001002406000424210B487B084
:1008A400184C94E80F000DF1180C0CE90F00238A82
:1008B400ADF80430144B5B6803F00C02042A03D037
:1008C400082A05D0114800E0114807B010BC704751
:1008D400C3F3834206A90A4412F8102C13F4803F90
:1008E4000CD0094B5B68C3F340430B4413F8143C2E
:1008F400074800FB02F0B0FBF3F0E6E7054800FB15
:1009040002F0E2E7F80D00080010024000127A003D
:10091400001BB70000093D00002800F0A38070B55B
:100924000446524B1B6803F007038B420CD24F4A18
:10093400136823F007030B431360136803F00703E2
:100944008B4201D0012070BD236813F0020F17D031
:1009540013F0040F04D0464A536843F4E063536031
:10096400236813F0080F04D0414A536843F46053DA
:1009740053603F4A536823F0F003A0680343536075
:100984000D46236813F0010F31D06368012B20D08A
:10099400022B25D0364A126812F0020F64D0344973
:1009A4004A6822F0030213434B60FFF73FFD0646FB
:1009B4002F4B5B6803F00C036268B3EB820F16D015
:1009C400FFF734FD801B41F288339842F0D90320AD
:1009D400B9E7274A126812F4003FE0D10120B2E7D8
:1009E400234A126812F0007FD9D10120ABE71F4BD4
:1009F4001B6803F00703AB420CD91C4A136823F0AD
:100A040007032B431360136803F00703AB4201D0C1
:100A1400012098E7236813F0040F06D0144A5368A2
:100A240023F4E063E1680B435360236813F0080F79
:100A340007D00F4A536823F46053216943EAC10382
:100A44005360FFF72BFF0A4B5B68C3F30313094A98
:100A5400D35CD840084B1860084B1868FFF7A2FC19
:100A6400002070E70120704701206CE7002002405D
:100A7400001002400C0E00080000002008000020B6
:100A8400F0B482B000263246ABE0002D63D0012DD5
:100A940000D1CE68FF2B72D88446FF2B72D8950004
:100AA400DCF800400F27AF4024EA070406FA05F5F6
:100AB4002C43CCF800404C6814F0805F00F0908028
:100AC400664CA56945F00105A561A46904F001041B
:100AD4000194019C9508AF1C614C54F827C002F0A6
:100AE4000304A7000F24BC402CEA040C5D4CA04274
:100AF4004ED004F58064A04200F08C8004F580643C
:100B0400A04200F0898004F58064A04200F0868051
:100B140004F58064A04200F0838004F58064A04260
:100B240034D0062435E0504FBD4214D00BD94F4F7A
:100B3400BD4210D007F58037BD420CD0A7F5801711
:100B4400BD42A7D107E0A7F58017BD4203D007F542
:100B54008037BD429ED18D687DB1012D08D044619E
:100B6400082697E7CE68083694E7CE680C3691E7F6
:100B7400046108268EE700268CE704268AE700F144
:100B8400040C8AE7A2F10805AD0089E7052400E01A
:100B94000024BC4044EA0C040235314F47F8254098
:100BA4004C6814F4803F3DD0314D2C681C432C60BC
:100BB4004C6814F4003F3BD02D4D6C681C436C60B2
:100BC4004C6814F4801F39D0294DAC681C43AC60C8
:100BD4004C6814F4001F37D0254DEC682343EB60B8
:100BE40001320B6833FA02F434D0012494402340D8
:100BF4009C42F5D14D68122DB7D094D8022DB1D0B6
:100C04007FF643AF032DB6D0112D7FF443AFCE68EA
:100C140004363FE70124BCE70224BAE70324B8E71B
:100C24000424B6E7124D2C6824EA03042C60BFE7C1
:100C34000F4D6C6824EA03046C60C1E70C4DAC688A
:100C440024EA0304AC60C3E7094DEC6824EA030317
:100C5400EB60C5E702B0F0BC704700BF0010024073
:100C64000000014000080140000021100000311084
:100C74000004014012B90904016170470161704721
:100C8400C3680B4201D101617047416170470000A4
:100C9400074AD36823F4E0631B041B0C000200F42E
:100CA400E060184340F0BF6040F40030D06070470B
:100CB40000ED00E030B4174BDB68C3F30223C3F14B
:100CC4000704042C28BF04241D1D062D18D9033B3A
:100CD4004FF0FF3505FA04F421EA0401994005FABE
:100CE40003F322EA0303194300280BDB0901C9B209
:100CF40000F1604000F5614080F8001330BC70479B
:100D04000023E5E700F00F000901C9B2024B1954B2
:100D1400F4E700BF00ED00E014ED00E00138B0F1AD
:100D2400807F0AD2064B5860064AF02182F82310CD
:100D34000020986007221A6070470120704700BFA6
:100D440010E000E000ED00E0002103E00B4B5B58F5
:100D5400435004310A480B4B42189A42F6D30A4ACC
:100D640002E0002342F8043B084B9A42F9D3FFF710
:100D7400F3FA00F00FF8FFF77DFA7047240E00082D
:100D8400000000200C0000200C0000202C0000209B
:100D9400FEE7000070B500250C4E0D4CA41BA410FA
:100DA400A54209D100F01AF800250A4E0A4CA41BEA
:100DB400A410A54205D170BD56F8253098470135D9
:100DC400EEE756F8253098470135F2E71C0E000887
:100DD4001C0E00081C0E0008200E0008F8B500BF09
:100DE400F8BC08BC9E467047F8B500BFF8BC08BC08
:040DF4009E46704760
:100DF80002030405060708090A0B0C0D0E0F101054
:100E080001020000000000000000000001020304CD
:040E180006070809B8
:040E1C0009020008BF
:040E2000E5010008E0
:0C0E24000024F400010000001000000099
:0400000508000D4D95
:00000001FF
