:020000040800F2
:1000000000C000204D0F0008310400083304000830
:100010003504000837040008390400080000000017
:100020000000000000000000000000003B04000889
:100030003D040008000000003F04000841040008DF
:10004000950F0008950F0008950F0008950F000800
:10005000950F0008950F0008950F0008950F0008F0
:10006000950F0008950F0008950F0008950F0008E0
:10007000950F0008950F0008950F0008950F0008D0
:10008000950F0008950F0008950F0008950F0008C0
:10009000950F0008950F0008950F0008950F0008B0
:1000A000950F0008950F0008950F0008950F0008A0
:1000B000950F0008950F0008950F0008950F000890
:1000C000950F0008950F0008950F0008950F000880
:1000D000950F0008950F0008950F0008950F000870
:1000E000950F0008950F0008950F0008950F000860
:1000F000950F0008950F0008950F0008950F000850
:10010000950F0008950F0008950F0008950F00083F
:10011000950F0008950F0008950F0008950F00082F
:10012000950F0008950F0008950F0008950F00081F
:1001300000000000000000000000000000000000BF
:1001400000000000000000000000000000000000AF
:10015000000000000000000000000000000000009F
:10016000000000000000000000000000000000008F
:10017000000000000000000000000000000000007F
:10018000000000000000000000000000000000006F
:10019000000000000000000000000000000000005F
:1001A000000000000000000000000000000000004F
:1001B000000000000000000000000000000000003F
:1001C000000000000000000000000000000000002F
:1001D000000000000000000000000000000000001F
:0401E0005FF8E0F1F3
:1001E40010B5054C237833B9044B13B10448AFF36D
:1001F40000800123237010BD0C00002000000000CB
:10020400E00F000808B5034B1BB103490348AFF3E3
:10021400008008BD0000000010000020E00F00086E
:1002240082B0019002E0019B013B0193019B002BF2
:10023400F9D102B0704730B591B000240894099404
:100244000B940C9401940294039404940594012255
:1002540006924FF4803307930A9202250D950E936C
:100264004FF4E0130F9306A800F06EF90F230193E7
:10027400029503944FF4806304930594294601A8DE
:1002840000F0A2FB11B030BD531E9BB282B110B47A
:1002940004680A68944209D1043004311A46013BC7
:1002A4009BB2002AF4D1012010BC70470020FBE768
:1002B4000120704710B500F00DF9FFF7BCFF00F006
:1002C4004FF800F083F820231E4A1F491F4800F00E
:1002D40091FDC0B11E4C4FF4802323616FF07F4029
:1002E400FFF79EFFE36883F00403E3606FF07F4051
:1002F400FFF796FFEEE7174B1B6813F0020F0CBFD6
:10030400012300236BB1114B1A68134B9A42F2D9A3
:1003140003F560731B6813F0020F0CBF0123002365
:10032400F0E7202207490848FFF7AEFF20B9084B41
:100334004FF480221A61FEE7054B4FF400221A6144
:10034400F9E700BF280000200C100008A8000020D6
:10035400001001400000024080000240704700008D
:1003640030B587B000240294039404940594154B8B
:100374009A6942F020029A619A6902F0200200927E
:10038400009A9A6942F010029A619B6903F0100383
:100394000193019B0C4D22460C21284600F0C2FC1F
:1003A4000C2302930123039304940223059302A9CB
:1003B400284600F0BDFB04232B6108232B6107B002
:1003C40030BD00BF001002400010014000B583B0F2
:1003D400134B5A6942F001025A615B6903F001034D
:1003E4000193019B0F48104B03604FF4804343601B
:1003F400402383608023C3604FF4007303614FF490
:1004040000634361002383614FF48053C36100F0B0
:10041400A5FC10B903B05DF804FBFFF79FFFF9E7F3
:1004240000100240A8000020080002407047FEE7C8
:10043400FEE7FEE7FEE770477047704708B500F037
:100444005BF808BD82B00E4B9A6942F001029A61D2
:100454009A6902F001020092009ADA6942F080522D
:10046400DA61DB6903F080530193019B054A536809
:1004740023F0E06343F08063536002B0704700BF31
:10048400001002400000014010B504460E4B1878DD
:100494004FF47A73B3FBF0F30C4A1068B0FBF3F03B
:1004A40000F016FD68B90F2C01D901200AE00022E2
:1004B40021464FF0FF3000F0D7FC054B1C600020B4
:1004C40000E0012010BD00BF000000200800002053
:1004D4000400002008B5074A136843F010031360B2
:1004E400032000F0AFFC0020FFF7CEFFFFF7AAFFC8
:1004F400002008BD00200240034A1168034B1B780A
:100504000B441360704700BFEC0000200000002083
:10051400014B1868704700BFEC00002082B0084B04
:100524001B68084AA2FB03235B0A00FB03F001904B
:1005340000BF019B5A1E0192002BF9D102B07047F3
:1005440008000020D34D6210002800F0F58170B53A
:1005540082B00446036813F0010F2CD0AB4B5B68E8
:1005640003F00C03042B1DD0A84B5B6803F00C03B1
:10057400082B12D06368B3F5803F41D0002B55D1CE
:1005840003F1804303F504331A6822F480321A60BD
:100594001A6822F480221A6037E09C4B5B6813F4DB
:1005A400803FE7D0994B1B6813F4003F03D0636886
:1005B400002B00F0C381236813F0020F76D0934B15
:1005C4005B6813F00C0F5FD0904B5B6803F00C0377
:1005D400082B54D02369002B00F08A808C4B012215
:1005E4001A60FFF795FF0546884B1B6813F0020F4E
:1005F40075D1FFF78DFF401B0228F5D90320A0E138
:10060400824A136843F480331360636843B3FFF78B
:100614007FFF05467D4B1B6813F4003FCBD1FFF7EA
:1006240077FF401B6428F5D903208AE1B3F5A02F96
:1006340009D0764B1A6822F480321A601A6822F4C0
:1006440080221A60E1E703F18043A3F53C331A6882
:1006540042F480221A601A6842F480321A60D4E7A5
:10066400FFF756FF0546694B1B6813F4003FA2D001
:10067400FFF74EFF401B6428F5D9032061E1634B6B
:100684005B6813F4803FA5D1604B1B6813F0020F25
:1006940004D02369012B01D0012052E15B4A136885
:1006A40023F0F803616943EAC1031360236813F07C
:1006B400080F32D0A369002B5BD0564B01221A607D
:1006C400FFF726FF0546514B5B6A13F0020F21D159
:1006D400FFF71EFF401B0228F5D9032031E14B4AE6
:1006E400136823F0F803616943EAC1031360DDE78B
:1006F400474B00221A60FFF70BFF0546434B1B686C
:1007040013F0020FD2D0FFF703FF401B0228F5D9E4
:10071400032016E10120FFF701FF236813F0040F03
:1007240000F09880394BDB6913F0805F33D1374B8D
:10073400DA6942F08052DA61DB6903F08053019395
:10074400019B0125344B1B6813F4807F25D0E3689B
:10075400012B36D0002B4CD103F1804303F5043335
:100764001A6A22F001021A621A6A22F004021A6258
:100774002CE0284B00221A60FFF7CAFE0546234BE3
:100784005B6A13F0020FC8D0FFF7C2FE401B0228B9
:10079400F5D90320D5E00025D4E71F4A136843F4B4
:1007A40080731360FFF7B4FE06461B4B1B6813F4FB
:1007B400807FCCD1FFF7ACFE801B6428F5D90320E1
:1007C400BFE0124A136A43F001031362E3687BB388
:1007D400FFF79EFE06460D4B1B6A13F0020F38D13D
:1007E400FFF796FE801B41F288339842F3D9032029
:1007F400A7E0052B12D0054B1A6A22F001021A62F7
:100804001A6A22F004021A62E0E700BF00100240F4
:100814000000424280044242007000404C4B1A6A7D
:1008240042F004021A621A6A42F001021A62CDE727
:10083400FFF76EFE0646464B1B6A13F0020F08D004
:10084400FFF766FE801B41F288339842F3D90320F8
:1008540077E0E5B9E369002B72D03D4A526802F0B3
:100864000C02082A56D0022B17D03A4B00221A60E9
:10087400FFF74EFE0446364B1B6813F0007F47D04B
:10088400FFF746FE001B0228F5D9032059E0304A41
:10089400D36923F08053D361DCE72E4B00221A6026
:1008A400FFF736FE05462A4B1B6813F0007F06D07F
:1008B400FFF72EFE401B0228F5D9032041E0236AEE
:1008C400B3F5803F1AD022494B6823F47413226A8B
:1008D400606A024313434B601E4B01221A60FFF708
:1008E40017FE04461A4B1B6813F0007F0ED1FFF766
:1008F4000FFE001B0228F5D9032022E0144A536896
:1009040023F40033A1680B435360DCE7002018E0B4
:10091400002016E0012B16D00D4B5B6803F48031E8
:10092400226A914201D001200BE003F47013626A41
:1009340093420AD0012004E001207047012000E026
:10094400002002B070BD0120FBE70020F9E700BFE2
:10095400001002406000424210B487B0164C94E884
:100964000F000DF1180C0CE90F00238AADF80430C8
:10097400124B5B6803F00C02082A1AD1C3F38342BA
:10098400624412F8102C13F4803F05D10C4800FB8C
:1009940002F007B010BC7047084B5B68C3F34043D8
:1009A400634413F8143C074800FB02F0B0FBF3F077
:1009B400EFE70448EDE700BFF80F0008001002401D
:1009C40000093D0000127A00002800F0A38070B5F1
:1009D4000446524B1B6803F007038B420CD24F4A68
:1009E400136823F007030B431360136803F0070332
:1009F4008B4201D0012070BD236813F0020F17D081
:100A040013F0040F04D0464A536843F4E063536080
:100A1400236813F0080F04D0414A536843F4605329
:100A240053603F4A536823F0F003A06803435360C4
:100A34000D46236813F0010F31D06368012B20D0D9
:100A4400022B25D0364A126812F0020F64D03449C2
:100A54004A6822F0030213434B60FFF759FD064630
:100A64002F4B5B6803F00C036268B3EB820F16D064
:100A7400FFF74EFD801B41F288339842F0D90320E2
:100A8400B9E7274A126812F4003FE0D10120B2E727
:100A9400234A126812F0007FD9D10120ABE71F4B23
:100AA4001B6803F00703AB420CD91C4A136823F0FC
:100AB40007032B431360136803F00703AB4201D011
:100AC400012098E7236813F0040F06D0144A5368F2
:100AD40023F4E063E1680B435360236813F0080FC9
:100AE40007D00F4A536823F46053216943EAC103D2
:100AF4005360FFF731FF0A4B5B68C3F30313094AE2
:100B0400D35CD840084B1860084B1868FFF7BCFC4E
:100B1400002070E70120704701206CE700200240AC
:100B2400001002408C10000808000020040000207F
:100B3400F0B482B000263246ABE0002D63D0012D24
:100B440000D1CE68FF2B72D88446FF2B72D8950053
:100B5400DCF800400F27AF4024EA070406FA05F545
:100B64002C43CCF800404C6814F0805F00F0908077
:100B7400664CA56945F00105A561A46904F001046A
:100B84000194019C9508AF1C614C54F827C002F0F5
:100B94000304A7000F24BC402CEA040C5D4CA042C3
:100BA4004ED004F58064A04200F08C8004F580648B
:100BB400A04200F0898004F58064A04200F08680A1
:100BC40004F58064A04200F0838004F58064A042B0
:100BD40034D0062435E0504FBD4214D00BD94F4FCA
:100BE400BD4210D007F58037BD420CD0A7F5801761
:100BF400BD42A7D107E0A7F58017BD4203D007F592
:100C04008037BD429ED18D687DB1012D08D04461ED
:100C1400082697E7CE68083694E7CE680C3691E745
:100C2400046108268EE700268CE704268AE700F193
:100C3400040C8AE7A2F10805AD0089E7052400E069
:100C44000024BC4044EA0C040235314F47F82540E7
:100C54004C6814F4803F3DD0314D2C681C432C600B
:100C64004C6814F4003F3BD02D4D6C681C436C6001
:100C74004C6814F4801F39D0294DAC681C43AC6017
:100C84004C6814F4001F37D0254DEC682343EB6007
:100C940001320B6833FA02F434D001249440234027
:100CA4009C42F5D14D68122DB7D094D8022DB1D005
:100CB4007FF643AF032DB6D0112D7FF443AFCE683A
:100CC40004363FE70124BCE70224BAE70324B8E76B
:100CD4000424B6E7124D2C6824EA03042C60BFE711
:100CE4000F4D6C6824EA03046C60C1E70C4DAC68DA
:100CF40024EA0304AC60C3E7094DEC6824EA030367
:100D0400EB60C5E702B0F0BC704700BF00100240C2
:100D140000000140000801400000211000003110D3
:100D24000004014012B90904016170470161704770
:100D340070B4066CC56B0124B4406C6004686360D5
:100D44004368102B05D0036899600368DA6070BCAF
:100D5400704703689A600368D960F8E700283BD0BD
:100D640010B4034601681D4A91422AD81C4A0A4419
:100D74001C49A1FB02121209920002641A4AC263BE
:100D8400022283F821201868016821F47F5121F0A0
:100D940030015A689C682243DC6822431C69224360
:100DA4005C6922439C692243DC6922430A43026052
:100DB40000209863012283F8212083F8200010BCCE
:100DC40070470A4A0A440749A1FB02121209920019
:100DD4000264074AC263D3E7012070470704024054
:100DE400F8FFFDBFCDCCCCCC00000240F8FBFDBF2A
:100DF4000004024070B590F82040012C20D001245A
:100E040080F8204090F82140012C04D0002380F881
:100E14002030022070BD0446022084F82100002501
:100E2400A5632668306820F0010030602046FFF793
:100E34007FFF2268136843F0010313602846E9E743
:100E44000220E7E7074AD36823F4E0631B041B0C82
:100E5400000200F4E060184340F0BF6040F400304A
:100E6400D060704700ED00E030B4174BDB68C3F38B
:100E74000223C3F10704042C28BF04241D1D062DDE
:100E840018D9033B4FF0FF3505FA04F421EA0401B5
:100E9400994005FA03F322EA0303194300280BDB04
:100EA4000901C9B200F1604000F5614080F8001307
:100EB40030BC70470023E5E700F00F000901C9B218
:100EC400024B1954F4E700BF00ED00E014ED00E01C
:100ED4000138B0F1807F0AD2064B5860064AF021EF
:100EE40082F823100020986007221A6070470120BE
:100EF400704700BF10E000E000ED00E00F4B1A68FF
:100F040042F001021A6059680D4A0A405A601A6890
:100F140022F0847222F480321A601A6822F4802249
:100F24001A605A6822F4FE025A604FF41F029A6053
:100F3400044B4FF000629A60704700BF00100240FB
:100F44000000FFF800ED00E0002103E00B4B5B58CC
:100F5400435004310A480B4B42189A42F6D30A4ACA
:100F640002E0002342F8043B084B9A42F9D3FFF70E
:100F7400C5FF00F00FF8FFF79DF97047A4100008B3
:100F8400000000200C0000200C000020F0000020D5
:100F9400FEE7000070B500250C4E0D4CA41BA410F8
:100FA400A54209D100F01AF800250A4E0A4CA41BE8
:100FB400A410A54205D170BD56F8253098470135D7
:100FC400EEE756F8253098470135F2E79C10000803
:100FD4009C1000089C100008A0100008F8B500BF81
:100FE400F8BC08BC9E467047F8B500BFF8BC08BC06
:040FF4009E4670475E
:100FF80002030405060708090A0B0C0D0E0F101052
:101008000102000004030201080706050C0B0A0987
:10101800100F0E0D14131211181716151C1B1A1980
:10102800201F1E1D24232221282726252C2B2A2970
:10103800302F2E2D34333231383736353C3B3A3960
:10104800403F3E3D44434241484746454C4B4A4950
:10105800504F4E4D54535251585756555C5B5A5940
:10106800605F5E5D64636261686766656C6B6A6930
:10107800706F6E6D74737271787776757C7B7A7920
:10108800807F7E7D00000000000000000102030454
:041098000607080936
:04109C00090200083D
:0410A000E50100085E
:0C10A40001000000100000000024F40017
:0400000508000F4D93
:00000001FF
