:020000040800F2
:1000000000C00020391700089D0400089F04000864
:10001000A1040008A3040008A504000800000000D3
:10002000000000000000000000000000A70400081D
:10003000A904000800000000AB040008AD0400089B
:100040008117000881170008811700088117000830
:100050008117000881170008811700088117000820
:100060008117000881170008811700088117000810
:100070008117000881170008B504000881170008DF
:1000800081170008811700088117000881170008F0
:1000900081170008811700088117000881170008E0
:1000A00081170008811700088117000881170008D0
:1000B00081170008811700088117000881170008C0
:1000C00081170008811700088117000881170008B0
:1000D00081170008811700088117000881170008A0
:1000E0008117000881170008811700088117000890
:1000F0008117000881170008811700088117000880
:10010000811700088117000881170008811700086F
:10011000811700088117000881170008811700085F
:10012000811700088117000881170008811700084F
:1001300000000000000000000000000000000000BF
:1001400000000000000000000000000000000000AF
:10015000000000000000000000000000000000009F
:10016000000000000000000000000000000000008F
:10017000000000000000000000000000000000007F
:10018000000000000000000000000000000000006F
:10019000000000000000000000000000000000005F
:1001A000000000000000000000000000000000004F
:1001B000000000000000000000000000000000003F
:1001C000000000000000000000000000000000002F
:1001D000000000000000000000000000000000001F
:0401E0005FF8E0F1F3
:1001E40010B5054C237833B9044B13B10448AFF36D
:1001F40000800123237010BD700000200000000067
:100204001421000808B5034B1BB103490348AFF39D
:10021400008008BD000000007400002014210008C4
:1002240030B591B00024089409940B940C94019473
:100234000294039404940594012206924FF48033AB
:1002440007930A9202250D950E934FF4E0130F9332
:1002540006A800F0D1FB0F230193029503944FF4F9
:10026400806304930594294601A800F005FE11B0AB
:1002740030BD000008B500F071FBFFF7D1FF00F0BE
:1002840027F800F05FF800F077F80C4801F000FB65
:10029400002303E00A4A4121D1540133632BF9DDE1
:1002A40064220749074800F0A1FAC82000F07AFB4D
:1002B4000421054800F0BAFFF7E700BF4021000819
:1002C4009800002040010020001001407047000009
:1002D40030B589B000240494059406940794174B10
:1002E4009A6942F020029A619A6902F0200201920E
:1002F400019A9A6942F010029A619A6902F0100216
:100304000292029A9A6942F004029A619B6903F08C
:1003140004030393039B0A4D22460421284600F05C
:100324007FFF042304930123059306940223079378
:1003340004A9284600F07AFE09B030BD001002403E
:100344000010014000B583B00A4B5A6942F0010223
:100354005A615B6903F001030193019B002211467A
:100364000E2001F08FF90E2001F0C0F903B05DF802
:1003740004FB00BF0010024008B50A480A4B0360A2
:100384004FF4E133436000238360C36003610C22B4
:1003940042618361C36100F08AF900B908BDFFF7C7
:1003A40095FFFBE7400100200038014070B586B09E
:1003B400002302930393049305930268224B9A4209
:1003C40001D006B070BD044603F558439A6942F45F
:1003D40080429A619A6902F480420092009A9A6972
:1003E40042F004029A619B6903F004030193019BA8
:1003F4004FF4007302930223039303230593134ED4
:1004040002A9304600F012FE4FF4806302930025E7
:100414000395049502A9304600F008FE0C480D4BE4
:1004240003601023436085608023C36005614561D8
:100434008561C56100F018FF18B9054B23635C6240
:10044400BFE7FFF743FFF8E7003801400008014029
:10045400FC0000204400024000B583B002A941F82A
:10046400040D4FF6FF730122034800F04FF9019881
:1004740003B05DF804FB00BF4001002070B51646D0
:10048400002405E04D1C0878FFF7E6FF01342946F7
:10049400B442F7DB304670BD7047FEE7FEE7FEE787
:1004A400FEE770477047704708B500F069FA08BD69
:1004B40008B5024800F05EFF08BD00BFFC00002044
:1004C40082B00E4B9A6942F001029A619A6902F075
:1004D40001020092009ADA6942F08052DA61DB6923
:1004E40003F080530193019B054A536823F0E063B2
:1004F40043F08063536002B0704700BF00100240B5
:10050400000001400F4B1A6842F001021A6059685A
:100514000D4A0A405A601A6822F0847222F480322A
:100524001A601A6822F480221A605A6822F4FE02C1
:100534005A604FF41F029A60044B4FF000629A60B5
:10054400704700BF001002400000FFF800ED00E01B
:100554000268D36823F0C003D360202380F83930C5
:1005640070470268D36823F49073D36002685369B8
:1005740023F001035361202380F83A3070470000D0
:1005840038B504460268136923F44053C1680B4329
:10059400136183680269134342691A430168CB6893
:1005A40023F4B05323F00C031343CB600268536964
:1005B40023F4407381690B4353610268214B9A42CF
:1005C4001FD000F013FD00EB800000EB8000636897
:1005D4009B00B0FBF3F01C4DA5FB003251096422D3
:1005E40002FB110213013233A5FB03235B0903F061
:1005F400F00202EB011203F00F03216813448B6035
:1006040038BD00F003FD00EB800000EB8000636860
:100614009B00B0FBF3F00C4DA5FB003251096422A2
:1006240002FB110213013233A5FB03235B0903F020
:10063400F00202EB011203F00F03216813448B60F4
:10064400DEE700BF003801401F85EB512DE9F04182
:1006540005460F4616469846069C2B681B6837EAE3
:1006640003030CBF01230023B3421DD1B4F1FF3FA8
:10067400F3D02CB100F090F9A0EB0800A042ECD923
:100684002A68D36823F4D073D3602A68536923F0AB
:1006940001035361202385F8393085F83A3000236B
:1006A40085F83830032000E00020BDE8F08158B31D
:1006B40010B5044690F839300BB3242384F839304C
:1006C4002268D36823F40053D3602046FFF758FF11
:1006D4002268136923F4904313612268536923F059
:1006E4002A0353612268D36843F40053D360002083
:1006F400E063202384F8393084F83A3010BD80F860
:100704003830FFF753FED8E7012070472DE9F04158
:1007140082B01E4690F83930DBB2202B55D1044606
:100724000D469046002955D0002A55D090F838300F
:10073400012B53D0012380F838300023C3632123D5
:1007440080F8393000F028F90746A4F82480A4F88A
:10075400268010E000963B46002280212046FFF7C9
:1007640075FF00283CD12B882268C3F3080353602B
:100774002369C3B90235E38C9BB2B3B1E38C013B6B
:100784009BB2E384A368B3F5805FE3D000963B4655
:10079400002280212046FFF759FF18BB2A782368DE
:1007A4005A600135E7E70135E5E700963B4600224C
:1007B40040212046FFF74AFF0346A8B9202284F8C7
:1007C4003920002284F8382000E00223184602B0C1
:1007D400BDE8F0810123F9E70123F7E70223F5E7F8
:1007E4000323F3E70323F1E70323EFE738B590F896
:1007F4003940E4B2202C31D1002931D0002A31D043
:1008040090F83830012B2FD013460446012280F88B
:10081400382001628384C3840025C563212280F8C3
:100824003920026B11489062226B1148D062226B0E
:1008340010481063226B556322680432206B00F069
:100844005FFD23686FF040021A6084F83850226814
:10085400536943F080035361284600E0022038BD09
:100864000120FCE70120FAE70220F8E77F080008EE
:10087400B1080008BD080008704708B5436A02685B
:10088400126812F0200F0CD10022DA8419684A6928
:1008940022F080024A611A68D36843F04003D360AF
:1008A40008BD1846FFF7E8FFFAE7704708B5406A45
:1008B400FFF7FBFF08BD704710B5446A23685A6907
:1008C40094F83930DBB2212B10D023685A6902F036
:1008D400400294F83A30DBB2222B11D0E36B43F0A0
:1008E4001003E3632046FFF7E6FF10BD02F0800229
:1008F400002AEAD00023E3842046FFF729FEE4E738
:10090400002AEBD00023E3852046FFF72AFEE5E723
:1009140010B504460E4B18784FF47A73B3FBF0F31A
:100924000C4A1068B0FBF3F000F0EEFE68B90F2C2F
:1009340001D901200AE0002221464FF0FF3000F0E7
:10094400A1FE054B1C60002000E0012010BD00BF8B
:1009540004000020000000200800002008B5074A19
:10096400136843F010031360032000F079FE0020A5
:10097400FFF7CEFFFFF7A4FD002008BD00200240D2
:10098400034A1168034B1B780B441360704700BF84
:100994008001002004000020014B1868704700BF4C
:1009A4008001002038B50446FFF7F6FF0546B4F190
:1009B400FF3F02D0044B1B781C44FFF7EDFF401BA4
:1009C400A042FAD338BD00BF0400002082B0084B17
:1009D4001B68084AA2FB03235B0A00FB03F0019097
:1009E40000BF019B5A1E0192002BF9D102B070473F
:1009F40000000020D34D6210002800F0F58170B58E
:100A040082B00446036813F0010F2CD0AB4B5B6833
:100A140003F00C03042B1DD0A84B5B6803F00C03FC
:100A2400082B12D06368B3F5803F41D0002B55D119
:100A340003F1804303F504331A6822F480321A6008
:100A44001A6822F480221A6037E09C4B5B6813F426
:100A5400803FE7D0994B1B6813F4003F03D06368D1
:100A6400002B00F0C381236813F0020F76D0934B60
:100A74005B6813F00C0F5FD0904B5B6803F00C03C2
:100A8400082B54D02369002B00F08A808C4B012260
:100A94001A60FFF781FF0546884B1B6813F0020FAD
:100AA40075D1FFF779FF401B0228F5D90320A0E197
:100AB400824A136843F480331360636843B3FFF7D7
:100AC4006BFF05467D4B1B6813F4003FCBD1FFF74A
:100AD40063FF401B6428F5D903208AE1B3F5A02FF6
:100AE40009D0764B1A6822F480321A601A6822F40C
:100AF40080221A60E1E703F18043A3F53C331A68CE
:100B040042F480221A601A6842F480321A60D4E7F0
:100B1400FFF742FF0546694B1B6813F4003FA2D060
:100B2400FFF73AFF401B6428F5D9032061E1634BCA
:100B34005B6813F4803FA5D1604B1B6813F0020F70
:100B440004D02369012B01D0012052E15B4A1368D0
:100B540023F0F803616943EAC1031360236813F0C7
:100B6400080F32D0A369002B5BD0564B01221A60C8
:100B7400FFF712FF0546514B5B6A13F0020F21D1B8
:100B8400FFF70AFF401B0228F5D9032031E14B4A45
:100B9400136823F0F803616943EAC1031360DDE7D6
:100BA400474B00221A60FFF7F7FE0546434B1B68CC
:100BB40013F0020FD2D0FFF7EFFE401B0228F5D945
:100BC400032016E10120FFF701FF236813F0040F4F
:100BD40000F09880394BDB6913F0805F33D1374BD9
:100BE400DA6942F08052DA61DB6903F080530193E1
:100BF400019B0125344B1B6813F4807F25D0E368E7
:100C0400012B36D0002B4CD103F1804303F5043380
:100C14001A6A22F001021A621A6A22F004021A62A3
:100C24002CE0284B00221A60FFF7B6FE0546234B42
:100C34005B6A13F0020FC8D0FFF7AEFE401B022818
:100C4400F5D90320D5E00025D4E71F4A136843F4FF
:100C540080731360FFF7A0FE06461B4B1B6813F45A
:100C6400807FCCD1FFF798FE801B6428F5D9032040
:100C7400BFE0124A136A43F001031362E3687BB3D3
:100C8400FFF78AFE06460D4B1B6A13F0020F38D19C
:100C9400FFF782FE801B41F288339842F3D9032088
:100CA400A7E0052B12D0054B1A6A22F001021A6242
:100CB4001A6A22F004021A62E0E700BF0010024040
:100CC4000000424280044242007000404C4B1A6AC9
:100CD40042F004021A621A6A42F001021A62CDE773
:100CE400FFF75AFE0646464B1B6A13F0020F08D064
:100CF400FFF752FE801B41F288339842F3D9032058
:100D040077E0E5B9E369002B72D03D4A526802F0FE
:100D14000C02082A56D0022B17D03A4B00221A6034
:100D2400FFF73AFE0446364B1B6813F0007F47D0AA
:100D3400FFF732FE001B0228F5D9032059E0304AA0
:100D4400D36923F08053D361DCE72E4B00221A6071
:100D5400FFF722FE05462A4B1B6813F0007F06D0DE
:100D6400FFF71AFE401B0228F5D9032041E0236A4D
:100D7400B3F5803F1AD022494B6823F47413226AD6
:100D8400606A024313434B601E4B01221A60FFF753
:100D940003FE04461A4B1B6813F0007F0ED1FFF7C5
:100DA400FBFD001B0228F5D9032022E0144A5368F6
:100DB40023F40033A1680B435360DCE7002018E000
:100DC400002016E0012B16D00D4B5B6803F4803134
:100DD400226A914201D001200BE003F47013626A8D
:100DE40093420AD0012004E001207047012000E072
:100DF400002002B070BD0120FBE70020F9E700BF2E
:100E0400001002406000424210B487B0164C94E8CF
:100E14000F000DF1180C0CE90F00238AADF8043013
:100E2400124B5B6803F00C02082A1AD1C3F3834205
:100E3400624412F8102C13F4803F05D10C4800FBD7
:100E440002F007B010BC7047084B5B68C3F3404323
:100E5400634413F8143C074800FB02F0B0FBF3F0C2
:100E6400EFE70448EDE700BF2C2100080010024022
:100E740000093D0000127A00002800F0A38070B53C
:100E84000446524B1B6803F007038B420CD24F4AB3
:100E9400136823F007030B431360136803F007037D
:100EA4008B4201D0012070BD236813F0020F17D0CC
:100EB40013F0040F04D0464A536843F4E0635360CC
:100EC400236813F0080F04D0414A536843F4605375
:100ED40053603F4A536823F0F003A0680343536010
:100EE4000D46236813F0010F31D06368012B20D025
:100EF400022B25D0364A126812F0020F64D034490E
:100F04004A6822F0030213434B60FFF745FD06468F
:100F14002F4B5B6803F00C036268B3EB820F16D0AF
:100F2400FFF73AFD801B41F288339842F0D9032041
:100F3400B9E7274A126812F4003FE0D10120B2E772
:100F4400234A126812F0007FD9D10120ABE71F4B6E
:100F54001B6803F00703AB420CD91C4A136823F047
:100F640007032B431360136803F00703AB4201D05C
:100F7400012098E7236813F0040F06D0144A53683D
:100F840023F4E063E1680B435360236813F0080F14
:100F940007D00F4A536823F46053216943EAC1031D
:100FA4005360FFF731FF0A4B5B68C3F30313094A2D
:100FB400D35CD840084B1860084B1868FFF7A8FCAE
:100FC400002070E70120704701206CE700200240F8
:100FD40000100240582100080000002008000020F2
:100FE400014B1868704700BF0000002008B5FFF7E8
:100FF400F7FF044B5B68C3F30223034AD35CD84076
:1010040008BD00BF001002406821000808B5FFF7C2
:10101400E7FF044B5B68C3F3C223034AD35CD840A5
:1010240008BD00BF0010024068210008F0B482B07F
:1010340000263246ABE0002D63D0012D00D1CE68EE
:10104400FF2B72D88446FF2B72D89500DCF8004041
:101054000F27AF4024EA070406FA05F52C43CCF821
:1010640000404C6814F0805F00F09080664CA569E5
:1010740045F00105A561A46904F001040194019CF3
:101084009508AF1C614C54F827C002F00304A70074
:101094000F24BC402CEA040C5D4CA0424ED004F555
:1010A4008064A04200F08C8004F58064A04200F0CB
:1010B400898004F58064A04200F0868004F5806491
:1010C400A04200F0838004F58064A04234D006245A
:1010D40035E0504FBD4214D00BD94F4FBD4210D014
:1010E40007F58037BD420CD0A7F58017BD42A7D1C4
:1010F40007E0A7F58017BD4203D007F58037BD424E
:101104009ED18D687DB1012D08D04461082697E7F2
:10111400CE68083694E7CE680C3691E70461082659
:101124008EE700268CE704268AE700F1040C8AE7A0
:10113400A2F10805AD0089E7052400E00024BC40C5
:1011440044EA0C040235314F47F825404C6814F446
:10115400803F3DD0314D2C681C432C604C6814F406
:10116400003F3BD02D4D6C681C436C604C6814F4FC
:10117400801F39D0294DAC681C43AC604C6814F412
:10118400001F37D0254DEC682343EB6001320B6818
:1011940033FA02F434D00124944023409C42F5D124
:1011A4004D68122DB7D094D8022DB1D07FF643AF3D
:1011B400032DB6D0112D7FF443AFCE6804363FE73C
:1011C4000124BCE70224BAE70324B8E70424B6E701
:1011D400124D2C6824EA03042C60BFE70F4D6C68A1
:1011E40024EA03046C60C1E70C4DAC6824EA0304F0
:1011F400AC60C3E7094DEC6824EA0303EB60C5E780
:1012040002B0F0BC704700BF001002400000014073
:1012140000080140000021100000311000040140CA
:1012240012B909040161704701617047C3680B4238
:1012340001D1016170474161704770B4066CC56BA0
:101244000124B4406C60046863604368102B05D0CB
:10125400036899600368DA6070BC704703689A6039
:101264000368D960F8E7000000283BD010B40346B7
:1012740001681D4A91422AD81C4A0A441C49A1FB10
:1012840002121209920002641A4AC263022283F80B
:1012940021201868016821F47F5121F030015A6837
:1012A4009C682243DC6822431C6922435C69224314
:1012B4009C692243DC6922430A430260002098634C
:1012C400012283F8212083F8200010BC70470A4AC9
:1012D4000A440749A1FB0212120992000264074A58
:1012E400C263D3E70120704707040240F8FFFDBF43
:1012F400CDCCCCCC00000240F8FBFDBF0004024082
:1013040038B590F82040012C32D0012480F82040D8
:1013140090F82140012C04D0002380F820300220D2
:1013240038BD0446022084F821000020A06325680B
:10133400286820F0010028602046FFF77EFFE36A5A
:101344005BB12268136843F00E03136022681368CC
:1013540043F0010313600020E2E72268136823F0DE
:10136400040313602268136843F00A031360EDE773
:101374000220D5E738B5C36B1A6804682568016C88
:1013840004238B40134200F09B8015F0040F00F0FF
:101394009780236813F0200F03D1236823F00403FC
:1013A40023600368AA4A934246D9783A934224D0E8
:1013B4001432934228D01432934227D014329342E9
:1013C40027D01432934227D01432934227D01432B8
:1013D400934227D002F56272934226D0143293428C
:1013E40025D01432934224D01432934202D04FF4C5
:1013F400802203E04FF4804200E00422954B5A60BF
:10140400C36A03B1984738BD4022F7E74FF48062BE
:10141400F4E74FF48042F1E74FF48022EEE74FF413
:101424008002EBE74FF08062E8E70422E6E740221F
:10143400E4E74FF48062E1E7874A934224D0143210
:10144400934225D01432934224D01432934224D0B0
:101454001432934224D01432934224D0143293424F
:1014640024D002F56272934223D01432934222D0E4
:101474001432934221D01432934202D04FF480228A
:1014840003E04FF4804200E00422744B5A60B7E753
:101494004022FAE74FF48062F7E74FF48042F4E722
:1014A4004FF48022F1E74FF48002EEE74FF08062C0
:1014B400EBE70422E9E74022E7E74FF48062E4E740
:1014C40002238B40134200F0A38015F0020F00F0BA
:1014D4009F80236813F0200F06D1236823F00A03AA
:1014E4002360012380F821300368594A93424BD981
:1014F400783A934224D0143293422DD0143293423A
:101504002CD0143293422CD0143293422CD0143267
:1015140093422CD0143293422CD002F5627293423F
:101524002BD0143293422AD01432934229D014324D
:10153400934202D04FF4003203E04FF4005200E033
:101544000222444B5A60002380F82030836A002B27
:101554003FF459AF984756E72022F2E74FF4007260
:10156400EFE74FF40052ECE74FF40032E9E74FF4B1
:101574000012E6E74FF00072E3E70222E1E72022DF
:10158400DFE74FF40072DCE7334A934224D014328D
:10159400934225D01432934224D01432934224D05F
:1015A4001432934224D01432934224D014329342FE
:1015B40024D002F56272934223D01432934222D093
:1015C4001432934221D01432934202D04FF40032A9
:1015D40003E04FF4005200E00222204B5A60B2E7CD
:1015E4002022FAE74FF40072F7E74FF40052F4E7D1
:1015F4004FF40032F1E74FF40012EEE74FF00072BF
:10160400EBE70222E9E72022E7E74FF40072E4E780
:10161400082303FA01F111423FF4F5AE15F0080F67
:101624003FF4F1AE236823F00E032360026CC16B18
:10163400012303FA02F24A60836380F82130002315
:1016440080F82030036B002B3FF4DDAE9847DAE6D8
:1016540080000240000402400800024000000240F2
:10166400074AD36823F4E0631B041B0C000200F454
:10167400E060184340F0BF6040F40030D060704731
:1016840000ED00E030B4174BDB68C3F30223C3F171
:101694000704042C28BF04241D1D062D18D9033B60
:1016A4004FF0FF3505FA04F421EA0401994005FAE4
:1016B40003F322EA0303194300280BDB0901C9B22F
:1016C40000F1604000F5614080F8001330BC7047C1
:1016D4000023E5E700F00F000901C9B2024B1954D9
:1016E400F4E700BF00ED00E014ED00E0002807DBA4
:1016F40000F01F02400901239340024A42F82030BF
:10170400704700BF00E100E00138B0F1807F0AD2E9
:10171400064B5860064AF02182F823100020986096
:1017240007221A6070470120704700BF10E000E0F4
:1017340000ED00E0002103E00B4B5B584350043103
:101744000A480B4B42189A42F6D30A4A02E0002395
:1017540042F8043B084B9A42F9D3FEF7D3FE00F05B
:101764000FF8FEF787FD7047DC2100080000002019
:10177400700000207000002088010020FEE70000B7
:1017840070B500250C4E0D4CA41BA410A54209D124
:1017940000F0BEFC00250A4E0A4CA41BA410A5426E
:1017A40005D170BD56F8253098470135EEE756F857
:1017B400253098470135F2E7D4210008D4210008E8
:1017C400D4210008D821000803460244934200D1E2
:1017D400704703F8011BF9E770B50E46054618B1CA
:1017E40083690BB900F00CFAAB69AC6813B92846ED
:1017F40000F006FA234B9C4217D16C68A3891B079F
:101804001DD52369DBB1013EA36816F8011F013B16
:10181400A360E9B9002B2EDA22460A21284600F0FB
:101824003FF8013011D00A2011E0174B9C4201D13E
:10183400AC68E3E7154B9C4208BFEC68DEE7214641
:10184400284600F07FF80028DDD04FF0FF3070BD4F
:10185400002B04DAA2699A4206DC0A2904D0236820
:101864005A1C22601970CFE72246284600F018F867
:101874000130C9D1E9E70A2023685A1C2260187094
:10188400E5E700BF94210008B42100087421000892
:10189400024B01461868FFF79FBF00BF0C000020F1
:1018A400F8B50E461446054618B183690BB900F025
:1018B400A7F9214B9C422AD16C68A369A360A38930
:1018C4001A072ED5236963B323692068F6B2C01AB8
:1018D40063693746834204DC2146284600F026F932
:1018E40028BBA3680130013BA36023685A1C226013
:1018F4001E706369834204D0A389DB0719D50A2EBD
:1019040017D12146284600F011F990B10FE00B4B96
:101914009C4201D1AC68D0E7094B9C4208BFEC68FB
:10192400CBE72146284600F00DF80028CCD04FF034
:10193400FF373846F8BD00BF94210008B4210008E1
:1019440074210008324B70B51D6806460C4625B15B
:10195400AB6913B9284600F053F92E4B9C420FD1C2
:101964006C68B4F90C309AB215072CD4D00611D493
:101974000922326043F04003A3814FF0FF303EE080
:10198400254B9C4201D1AC68EBE7244B9C4208BF39
:10199400EC68E6E7510712D5616B41B104F14403E9
:1019A400994202D0304600F019FA00236363A389F8
:1019B40023F02403A3810023636023692360A389A4
:1019C40043F00803A38123694BB9A38903F420736B
:1019D400B3F5007F03D02146304600F0BFF9A28959
:1019E40012F001030CD00023A36063695B42A3617E
:1019F400236953B9B4F90C3013F08000BAD170BD27
:101A0400920758BF6369A360F2E70020F7E700BFBD
:101A14000C00002094210008B4210008742100085F
:101A24008A892DE9F041054610070C4658D44B68C5
:101A3400002B05DC0B6C002B02DC0020BDE8F081E0
:101A4400E66A002EF9D0002312F480522F68216A2E
:101A54002B6032D0606DA3895A0705D56368C01A1C
:101A6400636B0BB1236CC01A00230246E66A216A39
:101A74002846B047431CA38906D129681D2948D8A4
:101A8400294ACA40D60744D5002262602269D90493
:101A9400226004D5421C01D12B6803B96065616BD7
:101AA4002F600029C9D004F14403994202D028468A
:101AB40000F094F900206063C0E701232846B04792
:101AC400411CC8D12B68002BC5D01D2B01D0162B6F
:101AD40001D12F60B1E7A38943F04003A381ADE7AF
:101AE4000F69002FA9D0930718BF00230E6808BF01
:101AF4004B69A6EB07080F608B60B8F1000F9CDD03
:101B040043463A46216A2846A66AB047002806DCBE
:101B1400A38943F04003A3814FF0FF308EE70744CD
:101B2400A8EB0008E9E700BF0100402038B50B69C5
:101B340005460C46DBB118B183690BB900F060F8B7
:101B44000C4B9C4209D16C68B4F90C307BB1214632
:101B54002846BDE83840FFF763BF074B9C4201D1DC
:101B6400AC68F1E7054B9C4208BFEC68ECE7002049
:101B740038BD00BF94210008B42100087421000876
:101B8400002310B50446C0E90033836081814366B5
:101B9400C281C0E904338361194608225C30FFF72F
:101BA40013FE054B24626362044BA362044BE3629D
:101BB400044B236310BD00BF4D1F00086F1F0008B6
:101BC400A71F0008CB1F0008014900F085B800BF1B
:101BD400311B000870B568254A1E55430E4605F1B1
:101BE400740100F047F9044640B10021C0E9001631
:101BF4000C30A06005F16802FFF7E6FD204670BDD9
:101C0400836910B5044633BBC0E912330365124B34
:101C1400124A1B688262984204BF0123836100F068
:101C24001FF86060204600F01BF8A060204600F01A
:101C340017F80022E06004216068FFF7A1FF012289
:101C44000921A068FFF79CFF02221221E068FFF738
:101C540097FF0123A36110BD70210008CD1B00086C
:101C6400F8B51B4B07461E68B36913B93046FFF736
:101C7400C7FF4836D6E90134013B03D5336833B195
:101C84003668F7E7B4F90C506DB16834F4E7042111
:101C94003846FFF79FFF30600028F1D10C2304463B
:101CA4003B602046F8BD0B4B6566C4E90055A56052
:101CB400C4E90335C4E905550822294604F15C004A
:101CC400FFF782FDC4E90D55C4E91255E9E700BFE9
:101CD400702100080100FFFF2DE9F8438046894682
:101CE400002600F1480414B93046BDE8F883D4E96D
:101CF4000175013F01D52468F5E7AB89012B07D9AC
:101D0400B5F90E30013303D029464046C84706438F
:101D14006835EEE770B50E46B1F90E1096B000299D
:101D240014461D4607DA00232B60B3891A0610D423
:101D34004FF480630EE06A4600F06CF90028F2DB91
:101D4400019A02F47042A2F500535A425A412A60A1
:101D5400EEE740230020236016B070BD8B8973B575
:101D64009D0706460C4607D504F14703236023610B
:101D74000123636102B070BD01AB6A46FFF7CAFF7D
:101D840000990546304600F075F848B9B4F90C30AE
:101D94009A05EFD423F0030343F00203A381E3E79E
:101DA4000D4BB362A389206043F08003A381009BA1
:101DB40020616361019B5BB1B4F90E10304600F001
:101DC4003BF928B1A38923F0030343F00103A38162
:101DD400A3891D43A581CDE7CD1B000838B5054671
:101DE400002943D051F8043C0C1F002BB8BFE41861
:101DF40000F044F91E4A1368104633B96360146056
:101E04002846BDE8384000F03AB9A3420BD921680E
:101E14006218934201BF1A685B68521822606360BB
:101E24000460EDE713465A680AB1A242FAD9196868
:101E34005818A0420BD120680144581882421960F6
:101E4400DED110685268014419605A60D8E702D99B
:101E54000C232B60D4E7206821188A4201BF116843
:101E640052680918216062605C60C9E738BD00BF30
:101E74008C00002070B5CD1C25F0030508350C2D11
:101E840038BF0C25002D064601DBA94203D90C23DB
:101E94003360002070BD00F0F1F8214A1468214637
:101EA40091B9204C23681BB9304600F03DF82060FE
:101EB4002946304600F038F8431C24D10C23304620
:101EC400336000F0DCF8E4E70B685B1B18D40B2BE1
:101ED4000FD90B60CC18CD50304600F0D0F804F187
:101EE4000B00231D20F00700C31AD3D05A42E2503E
:101EF400D0E74B688C4216BF636013600C46EBE777
:101F04000C464968CCE7C41C24F00304A04205D065
:101F1400211A304600F008F80130CFD02560DBE705
:101F24008C0000209000002038B50023054C0546A5
:101F34000846236000F0DEF8431C02D1236803B195
:101F44002B6038BD8401002010B50C46B1F90E1089
:101F540000F096F80028ABBF636DA3891B1823F427
:101F64008053ACBF6365A38110BD2DE9F0411F46CA
:101F74008B890546DB050C46164605D5022300224F
:101F8400B1F90E1000F068F8A389324623F48053A7
:101F9400A381B4F90E103B462846BDE8F04100F099
:101FA40017B810B50C46B1F90E1000F055F8431CE3
:101FB400A38915BF606523F4805343F48053A38140
:101FC40018BFA38110BDB1F90E1000F013B80000C2
:101FD40038B50546084611460022054C22601A46CB
:101FE400FEF74CFA431C02D1236803B12B6038BDC1
:101FF4008401002038B50023054C054608462360BB
:1020040000F050F8431C02D1236803B12B6038BDA3
:102014008401002038B50023064C054608461146C5
:10202400236000F047F8431C02D1236803B12B60FE
:1020340038BD00BF8401002038B50023054C054697
:102044000846236000F03EF8431C02D1236803B124
:102054002B6038BD8401002038B50546084611467A
:102064000022054C22601A4600F034F8431C02D1C9
:10207400236803B12B6038BD84010020704770478A
:1020840038B50546084611460022054C22601A461A
:1020940000F028F8431C02D1236803B12B6038BD3B
:1020A400840100205822024B4FF0FF301A60704721
:1020B400840100205822024B4FF0FF301A60704711
:1020C400840100205822024B00201A60704700BF90
:1020D400840100205822024B4FF0FF301A607047F1
:1020E400840100205822024B4FF0FF301A607047E1
:1020F40084010020044A05491368002B08BF0B46DD
:10210400184410601846704794000020880100208D
:10211400F8B500BFF8BC08BC9E467047F8B500BFD0
:08212400F8BC08BC9E467047A0
:10212C0002030405060708090A0B0C0D0E0F10100C
:10213C00010200000D0A2055534152543120444DE8
:10214C00412054582054657374200D000000000089
:10215C00000000000102030406070809000000004B
:10216C000102030410000020000000000000000029
:10217C000000000000000000000000000000000053
:10218C000000000000000000000000000000000043
:10219C000000000000000000000000000000000033
:1021AC000000000000000000000000000000000023
:1021BC000000000000000000000000000000000013
:0821CC0000000000000000000B
:0421D40009020008F4
:0421D800E501000815
:1021DC000024F4000100000010000000100000209A
:1021EC000000000094210008B421000874210008AC
:1021FC0000000000000000000000000000000000D3
:10220C0000000000000000000000000000000000C2
:10221C0000000000000000000000000000000000B2
:10222C0000000000000000000000000000000000A2
:10223C000000000000000000000000000000000092
:04000005080017399F
:00000001FF
